:1000000030010120B50C0000B10C00003D040000DF
:10001000B10C0000B10C0000B10C000000000000A9
:10002000000000000000000000000000B10C000013
:10003000B10C000000000000B10C0000B10C000089
:10004000B10C0000B10C0000B10C0000B10C0000BC
:10005000B10C0000B10C0000B10C0000B10C0000AC
:10006000B10C0000B10C0000B10C00002104000034
:10007000B10C0000B10C0000B10C0000B10C00008C
:10008000B10C0000B10C0000B10C0000B10C00007C
:10009000B10C0000B10C0000B10C0000B10C00006C
:1000A000B10C0000B10C0000B10C0000B10C00005C
:1000B000B10C0000B10C0000B10C0000B10C00004C
:1000C000B10C0000B10C0000B10C0000B10C00003C
:1000D000B10C0000B10C0000B10C0000B10C00002C
:1000E000B10C0000B10C0000000000000000000096
:1000F00000000000B10C0000B10C0000B10C0000C9
:10010000B10C0000B10C0000B10C0000B10C0000FB
:10011000B10C0000B10C0000B10C0000B10C0000EB
:10012000B10C0000B10C0000B10C0000B10C0000DB
:10013000B10C0000B10C0000B10C0000B10C0000CB
:10014000B10C0000B10C0000B10C0000B10C0000BB
:10015000B10C0000B10C0000B10C0000B10C0000AB
:10016000B10C0000B10C0000B10C0000B10C00009B
:10017000B10C0000B10C0000B10C0000B10C00008B
:10018000B10C0000B10C0000B10C0000B10C00007B
:10019000B10C0000B10C0000B10C0000B10C00006B
:1001A000B10C0000B10C0000B10C0000B10C00005B
:1001B000B10C0000B10C0000B10C0000B10C00004B
:1001C000B10C0000B10C0000B10C0000B10C00003B
:1001D000B10C0000B10C0000B10C0000B10C00002B
:1001E000B10C0000B10C0000B10C0000B10C00001B
:1001F000B10C0000B10C0000B10C0000B10C00000B
:10020000B10C0000B10C0000B10C0000B10C0000FA
:10021000B10C0000B10C0000B10C0000B10C0000EA
:10022000410400006D04000099040000B10C0000BE
:10023000B10C0000B10C0000B10C0000B10C0000CA
:10024000B10C0000B10C0000B10C0000B10C0000BA
:10025000B10C0000B10C0000B10C0000B10C0000AA
:10026000B10C00000348044B834202D0034B03B19E
:1002700018477047B4230000B423000000000000BA
:1002800005480649091A891001EBD171491002D0BD
:10029000034B03B118477047B4230000B423000098
:1002A0000000000010B5064C237843B9FFF7DAFFD1
:1002B000044B13B10448AFF300800123237010BD39
:1002C000F400002000000000B423000008B5054B36
:1002D0001BB105490548AFF30080BDE80840FFF7B2
:1002E000CFBF00BF00000000F8000020B4230000D2
:1002F00008B52B4B98472B4B98472B4B98472B4BCC
:1003000098472B4B98472B4B98472B482B4CA04793
:100310002B48A0472B48A0472B48A0472B48A04775
:100320002B48A0472B48A0472B48A0472B48A04765
:100330002B48A0472B48A0472B4B98472B4B98475F
:100340002B4B98472B4B98472B4B98472B4B984759
:100350002B4B98472B4B98472B4B98472B4B984749
:100360002B4B98472B48A047BFF34F8F30BF2A4BEA
:100370008022C3F808214FF48042C3F808214FF4CB
:100380000002C3F808214FF08042C3F8082145F26B
:1003900055564AF6AA25214C31462846A047FBE788
:1003A000090A0000190A0000F1080000B90B00005A
:1003B000510D00001D09000074190000250F0000F8
:1003C000A0190000C4190000F4190000181A000058
:1003D000441A0000701A0000C01A0000EC1A000055
:1003E000201B0000681B0000050600000D0B00002C
:1003F000FD070000610A0000890C0000310A0000BE
:100400008D090000BD080000150700003D05000033
:10041000C1040000981B0000008000410100002082
:10042000044B4FF480729A81034B4FF40062C3F87F
:10043000802170470024004000E100E0FEE700005A
:1004400008B5074B042283F82E20064B4FF080722C
:10045000C3F88C214FF47A70034B984708BD00BF56
:100460000020004300E100E04F0D000008B5074BFD
:10047000012283F82E20064B4FF00072C3F88C2126
:100480004FF47A70034B984708BD00BF002000432B
:1004900000E100E04F0D000008B5064B01229A7103
:1004A000054B4FF08062C3F88C214FF47A70034BF8
:1004B000984708BD0020004200E100E04F0D000019
:1004C0001A4AD36943F48073D361194B4322C3F8AA
:1004D0000021184A137843F001031370136A13F0D4
:1004E000010FFBD1134B1F221A734FF080121268B9
:1004F00002F003029A84104A1A611A46136A13F032
:10050000080FFBD10B4B5A8842F480725A805A79FB
:1005100042F001025A711A7842F002021A701A4629
:10052000136A13F0020FFBD1704700BF00080040B0
:10053000001C0040002000424642030008B52D4A3E
:10054000136A43F4807313622B4B4322C3F82421B4
:100550002A4B01221A801A46136B13F0010FFBD1AC
:10056000264BC0221A804FF41062DA801A46136BB1
:1005700013F0080FFBD1214B41F606029A801A4670
:10058000136B13F0040FFBD11C4B00221A721A4696
:10059000136B13F0100FFBD1184B4FF480629A814C
:1005A0001A46136B13F0800FFBD14FF080131968BC
:1005B0008A0D130103F07003120202F4E062134388
:1005C000C1F302410B430D4AA2F848300223937055
:1005D000138843F002031380136B13F0020FFBD157
:1005E0000220074B9847054A92F82F3013F0010F6D
:1005F000FAD108BD00080040001C00400020004364
:100600004D0D0000F8B5394AD36943F48043D361F6
:100610003748384DA847384B4322C3F804213748A0
:10062000A847374CA368042262F30B23A360A36896
:100630006FF30F33A360A3686FF31343A360A36842
:100640006FF35553A360A3686FF39653A360A36839
:100650006FF3C713A360A3686FF30513A360237937
:100660006FF3030323712748A847A368012767F3A3
:100670001F63A360A36843F00203A360224E3046C9
:10068000A8472369092262F30B23236123696FF3CF
:100690000F33236123696FF31343236123696FF3DE
:1006A0005553236123696FF39653236123696FF3D5
:1006B000C713236123696FF30513236163796FF314
:1006C000030363711148A847236967F31F6323611C
:1006D000236943F0020323613046A847237843F09F
:1006E000020323700A48A847F8BD00BF0008004075
:1006F000C81B0000250F0000001C0040FC1B000070
:1007000000380042201C0000541C0000901C000017
:10071000D01C000038B52E4A136A43F400731362EC
:100720002C482D4B98472D4BD3F82821032161F3FA
:100730000302C3F82821D3F8282142F04002C3F86D
:1007400028211A46D2F8283113F0400FFAD0244855
:10075000214B9847234A137843F0010313709368A1
:1007600013F0010FFBD11F4A137813F0010FFBD1D7
:100770001D48194DA8471B4C63786FF34203637003
:10078000A389022262F38303A381A3891343A38174
:10079000A389012262F30B23A381A38943F04003C1
:1007A000A3811248A8471248A8471248A8472378AF
:1007B00043F0020323702246936813F0020FFBD12B
:1007C0000D48054B9847074B4FF400621A8238BD1D
:1007D00000080040E81C0000250F0000001C00403D
:1007E0001C1D000000240043401D0000641D00008B
:1007F000981D0000C41D0000FC1D000038B5254CEC
:10080000254BA3632548264B98472723636322463D
:10081000D36B13F0040FFBD12248214B98471D4B9B
:10082000022283F830201A46D36B13F0020FFBD15B
:10083000184B1A6C12F0010F03D11A6C12F0020F50
:10084000F7D01948164DA847124C184BE3641848C6
:10085000A8476323A3642246136D13F0040FFBD152
:1008600014480F4B98470B4B022283F844201A463A
:10087000136D13F0020FFBD1064B5A6D12F0010FEE
:1008800003D15A6D12F0020FF7D00B48044B984772
:1008900038BD00BF0010004060000100201E0000B5
:1008A000250F0000541E0000781E000060000200AA
:1008B000A41E0000D81E0000FC1E0000094A936917
:1008C00043F080039361084B4022C3F8AC20074BF0
:1008D00001221A70C3F80422C3F80C224CF20C2235
:1008E0001A62704700080040001C004000E0004110
:1008F000064B40F207121A62054A5A62054A9A628A
:10090000054ADA6203321A63704700BF001C0040D8
:100910000809C8000801020001010100184B4FF44A
:100920000012C3F80821C3F81421164AC3F8A820FE
:10093000154AC3F8A8200132C3F8A82002F1FE42EC
:10094000FE32C3F8A82002F58072C3F8A82002F195
:100950000A42C3F8A820A2F5F8729A6270329A622D
:1009600002F17442703AC3F8A8201032C3F8A820EC
:100970001C3A9A6204329A6238329A62704700BF17
:10098000008000410080015C0100015470B5144DED
:10099000602685F80B631348134CA0474FF400639F
:1009A0002B601248A04785F878631148A0474FF0A4
:1009B0008073EB600F48A04785F879630E48A04725
:1009C0004FF00073EB600D48A04785F87A630C4840
:1009D000A0474FF08063EB600A48A04770BD00BF9E
:1009E00000E100E0281F0000250F0000501F00005C
:1009F0006C1F0000981F0000B81F0000E41F0000DB
:100A0000042000002C200000024B4FF4A0621A804A
:100A1000704700BF00400041044B42F206629A61F9
:100A20001A46D36813F0020FFBD070470010004045
:100A300008B5074B04225A700648074B9847044AEA
:100A40009379DBB2012BFBD10448034B984708BDD7
:100A50000004004048200000250F0000782000001E
:100A600038B5204A136A43F0400313621E481F4CF6
:100A7000A0471F4B4222C3F81C211E48A0471E4B13
:100A800001221A601A46136913F0010FFBD11B48AB
:100A9000164DA847184C00232360022323731848DF
:100AA000A84747F6FF73A3832246136913F0400F4C
:100AB000FBD1114B42F21072DA831A46136913F01C
:100AC000800FFBD10F48094B98470B4A136843F03E
:100AD00002031360136913F0020FFBD10A48034BA2
:100AE000984738BD0008004098200000250F0000FE
:100AF000001C0040CC20000000180043F020000043
:100B000014210000502100008821000038B5012484
:100B10001E4B1C741E481F4B98471F4B1C801A46C7
:100B2000136913F0010FFBD11B4A138813F0010F57
:100B3000FBD11A48174B9847174B48F280121A807E
:100B40001A46136913F4004FFBD11548114DA847FD
:100B50001448A8471448A8470F4C636843F48073AF
:100B600063601248A8474FF4004323621048A84727
:100B7000238843F0020323802246136913F0020FF7
:100B8000FBD10C48034B984738BD00BF0014004010
:100B9000A8210000250F000000240040E0210000F3
:100BA000FC21000038220000582200007C220000B6
:100BB000BC220000E4220000164A936943F400734B
:100BC0009361154B4322C3F8DC204422C3F88C20E8
:100BD000124B01221A601A46D36913F0010FFBD1A0
:100BE0000E4B0F4A1A604FF440325A601A46D369CE
:100BF00013F0040FFBD1094B4DF6AD029A811A6830
:100C000042F002021A601A46D36913F0020FFBD1B8
:100C1000704700BF00080040001C00400020014158
:100C20000400104010B40D4A137E13F0010FFBD0E6
:100C3000441E0020094A14F8013F9362137E13F00A
:100C4000010FFBD001308842F5D3044A137E13F024
:100C5000020FFBD05DF8044B704700BF002001413C
:100C600010B4441E0020074A137E13F0040FFBD07B
:100C7000936A04F8013F01308842F5D35DF8044BD4
:100C8000704700BF0020014108B5064B02229A615F
:100C90001A46D36813F4807FFBD00348034B984770
:100CA00008BD00BF00180040FC220000250F000016
:100CB000FEE7000008B51C4A1C4B9A4211D01A46A8
:100CC0001B4B9A420DD21146013B9B1A23F00303A2
:100CD0000433154A134452F8040B41F8040B9A42AA
:100CE000F9D1144A144B9A420AD2013B9B1A23F0C1
:100CF000030304331344002142F8041B9342FBD145
:100D00000E4B0F4A22F07F029A60D3F8882042F4FB
:100D10007002C3F88820BFF34F8FBFF36F8F094B6A
:100D20009847094B9847FEE7B423000000000020D5
:100D3000F4000020F40000202C01002000ED00E071
:100D400000000000F10D0000F10200007047704744
:100D500038B5054D2B6800219868044CA0472B68D6
:100D600000215868A04738BD90000020350F0000D2
:100D700040B908B50B4611461846044B984740EA5F
:100D8000E07008BD4FF0FF30704700BF610C0000FD
:100D90000138022808D808B50B4611461846044BFE
:100DA000984740EAE07008BD4FF0FF30704700BF41
:100DB000250C00000346064A126822B1044A106856
:100DC000034413607047024A02491160F6E700BF0E
:100DD00010010020300101204FF0FF3070474FF428
:100DE00000534B600020704701207047002070477F
:100DF00070B50D4D0D4C641BA4100026A64209D100
:100E00000B4D0C4C01F0C6FA641BA4100026A64240
:100E100005D170BD55F8043B98470136EEE755F80B
:100E2000043B98470136F2E7A0230000A02300000E
:100E3000A0230000A423000002440346934200D1F3
:100E4000704703F8011BF9E770B50E46054618B167
:100E500083690BB900F012FBAB69AC6813B9284683
:100E600000F00CFB2C4B9C4220D16C68636EDB07BE
:100E700005D4A389980502D4A06D00F09CFBA3893A
:100E800019071DD52369DBB1013EA36816F8011FC0
:100E9000013BA36039BB002B38DA22460A212846E1
:100EA00000F012F9013011D00A2511E01B4B9C42D1
:100EB00001D1AC68DAE71A4B9C4208BFEC68D5E771
:100EC0002146284600F052F90028DDD04FF0FF35CA
:100ED000636EDA0705D4A3899B0502D4A06D00F0E8
:100EE0006BFB284670BD002B04DAA2699A4206DC2F
:100EF0000A2904D023685A1C22601970C5E72246CB
:100F0000284600F0E1F80130BFD1DFE723680A2569
:100F10005A1C22601D70DBE754230000742300007C
:100F200034230000024B01461868FFF78DBF00BF55
:100F30009000002000294FF480630CBF02220022A1
:100F400000F000B82DE9F7431E465B4B1D680446D0
:100F50000F46904625B1AB6913B9284600F08EFACA
:100F6000564B9C4266D16C68B8F1020F06D0B8F1BE
:100F7000010F00F29D80002EC0F29A80636EDA07A6
:100F800005D4A3899B0502D4A06D00F014FB214673
:100F9000284600F0DFF9616B41B104F14403994246
:100FA00002D0284600F076FB002363630023A36190
:100FB0006360A389180603D52169284600F06AFBFF
:100FC000A38923F44A6323F00303B8F1020FA3813A
:100FD0006AD001AB6A462146284600F0EEFAA389A2
:100FE0001843A081002E2FD1009E304600F04AFB0E
:100FF0000746002853D1DDF80090B14548D14FF0A5
:10100000FF350022A26004F1470222602261012222
:10101000B4F90C306261626E43F00203D107A38120
:1010200004D49B0502D4A06D00F0C6FA284603B094
:10103000BDE8F083224B9C4201D1AC6894E7214B80
:101040009C4208BFEC688FE7002FCED0AB6913B984
:10105000284600F013FAB8F1010F08BFA3892760F2
:1010600004BF43F00103A381A38913F00802C4E97C
:1010700004761BD0DA0741BF00227642A260A66147
:1010800058BFA660656E15F00105CAD00025CDE7F2
:10109000484600F0F7FA07460028B0D04E46A3892C
:1010A00043F08003A381D1E70025AAE7A260E9E726
:1010B0004FF0FF35BAE700BF900000205423000036
:1010C0007423000034230000F8B50E46144605468C
:1010D00018B183690BB900F0D1F9214B9C422BD197
:1010E0006C68A369A360A3891A072FD523696BB322
:1010F00023692068C01A6369F6B28342374604DC6C
:101100002146284600F026F930BBA368013BA360C6
:1011100023685A1C22601E7063690130834204D028
:10112000A389DB0706D50A2E04D12146284600F004
:1011300011F988B93846F8BD0A4B9C4201D1AC6818
:10114000CFE7094B9C4208BFEC68CAE72146284616
:1011500000F00CF80028CBD04FF0FF37EAE700BFD3
:10116000542300007423000034230000324B70B578
:101170001D6806460C4625B1AB6913B9284600F038
:101180007DF92E4B9C420FD16C68B4F90C309AB2A9
:1011900015072CD4D00611D40922326043F0400345
:1011A000A3814FF0FF303EE0254B9C4201D1AC685B
:1011B000EBE7244B9C4208BFEC68E6E7510712D5E9
:1011C000616B41B104F14403994202D0304600F012
:1011D00061FA00236363A38923F02403A38100231E
:1011E000636023692360A38943F00803A381236913
:1011F0004BB9A38903F42073B3F5007F03D02146D4
:10120000304600F0FFF9A28912F001030CD0002350
:10121000A36063695B42A361236953B9B4F90C30DD
:1012200013F08000BAD170BD920758BF6369A36004
:10123000F2E70020F7E700BF9000002054230000F1
:1012400074230000342300008A892DE9F04105460B
:1012500010070C4658D44B68002B05DC0B6C002B98
:1012600002DC0020BDE8F081E66A002EF9D0002300
:1012700012F480522F682B6032D0606DA3895A0718
:1012800005D56368C01A636B0BB1236CC01A0023C9
:101290000246E66A216A2846B047431CA38906D164
:1012A00029681D2949D82A4ACA40D60745D50022AF
:1012B0006260D9042269226004D5421C01D12B68E6
:1012C00003B96065616B2F600029CAD004F1440343
:1012D000994202D0284600F0DDF900206063C1E7A2
:1012E000216A01232846B047411CC7D12B68002B37
:1012F000C4D01D2B01D0162B01D12F60B1E7A389DB
:1013000043F04003A381ADE70F69002FA9D09307F5
:101310000E6808BF4B690F6018BF0023A6EB0708D3
:101320008B60B8F1000F9CDD43463A46216AA66AFD
:101330002846B047002806DCA38943F04003A38178
:101340004FF0FF308EE70744A8EB0008E9E700BF45
:101350000100402038B50B6905460C4613B900253D
:10136000284638BD18B183690BB900F087F8144BD3
:101370009C421BD16C68B4F90C30002BEFD0626E2C
:10138000D00704D4990502D4A06D00F014F92846C2
:101390002146FFF759FF636EDA070546E0D4A389BB
:1013A0009B05DDD4A06D00F007F9D9E7054B9C4201
:1013B00001D1AC68DFE7044B9C4208BFEC68DAE778
:1013C000542300007423000034230000002310B5D0
:1013D0000446C0E90033836081814366C281C0E96D
:1013E00004338361194608225C30FFF725FD054B65
:1013F0006362054BA362054BE362054B24622363E2
:1014000010BD00BF05180000271800005F1800007D
:1014100083180000014900F0AFB800BF5513000069
:1014200070B54A1E682555430E4605F1740100F05B
:101430007FF9044640B10021C0E900160C30A060DD
:1014400005F16802FFF7F8FC204670BD014800F086
:10145000B2B800BF24010020014800F0ADB800BFC1
:1014600024010020014800F0A6B800BF1F010020A1
:10147000014800F0A1B800BF1F01002010B50446CC
:10148000FFF7F0FFA3691BB1BDE81040FFF7F0BF05
:10149000C4E912332365134B134A1B68A262A342AB
:1014A00004BF0123A361204600F020F860602046BD
:1014B00000F01CF8A060204600F018F80022E06060
:1014C00004216068FFF782FF01220921A068FFF76D
:1014D0007DFF02221221E068FFF778FF0123A3615C
:1014E000D2E700BF3023000015140000F8B507460E
:1014F000FFF7ACFF1E4B1E68B36913B93046FFF708
:10150000BDFF4836D6E90134013B03D533680BB340
:101510003668F7E7B4F90C50D5B9164BE36004F11F
:101520005800656600F046F8FFF796FF2560C4E9AD
:101530000155C4E90455A5610822294604F15C005F
:10154000FFF77AFCC4E90D55C4E912552046F8BDF1
:101550006834D9E704213846FFF762FF044630605B
:101560000028D5D1FFF778FF0C233B60EEE700BFE2
:10157000302300000100FFFF2DE9F8438046894633
:1015800000F14804002614B93046BDE8F883D4E9D8
:101590000175013F01D52468F5E7AB89012B07D917
:1015A000B5F90E30013303D029464046C8470643FB
:1015B0006835EEE770477047704770B50E46B1F971
:1015C0000E10002996B014461D4607DA00232B6042
:1015D000B3891A0610D44FF480630EE06A4600F017
:1015E00077F90028F2DB019A02F47042A2F5005369
:1015F0005A425A412A60EEE740230020236016B089
:1016000070BD00008B8973B59D0706460C4607D553
:1016100004F14703236023610123636102B070BDBD
:1016200001AB6A46FFF7C9FF00990546304600F056
:101630007FF848B9B4F90C309A05EFD423F00303CE
:1016400043F00203A381E3E70D4BB362A38920605B
:1016500043F08003A381009B6361019B20615BB128
:10166000B4F90E10304600F045F928B1A38923F0F3
:10167000030343F00103A381A3891D43A581CDE7A3
:1016800015140000024B0146186800F051B800BF65
:101690009000002038B50546002945D051F8043C9B
:1016A0000C1F002BB8BFE41800F046F91F4A13685E
:1016B000104633B9636014602846BDE8384000F036
:1016C00041B9A3420CD921686218934204BF1A6839
:1016D0005B68636004BF521822600460ECE7134645
:1016E0005A680AB1A242FAD919685818A0420BD117
:1016F00020680144581882421960DDD11068526890
:101700005A6001441960D7E702D90C232B60D3E754
:10171000206821188A4204BF11685268626004BFC1
:10172000091821605C60C7E738BD00BF14010020C4
:10173000F8B5CD1C25F0030508350C2D38BF0C2558
:10174000002D064601DBA94203D90C23336000209B
:10175000F8BD00F0F1F821490A6814469CB9204F01
:101760003B6823B92146304600F03CF838602946F2
:10177000304600F037F8431C23D10C233360304649
:1017800000F0E0F8E3E723685B1B17D40B2B03D9C9
:1017900023601C44256004E06368A2420CBF0B6018
:1017A0005360304600F0CEF804F10B00231D20F00A
:1017B0000700C21ACCD01B1AA350C9E7224664689E
:1017C000CCE7C41C24F00304A042E3D0211A304625
:1017D00000F008F80130DDD1CFE700BF1401002090
:1017E0001801002038B5064C002305460846236042
:1017F000FFF7E0FA431C02D1236803B12B6038BD28
:101800002801002010B50C46B1F90E1000F0A0F828
:101810000028ABBF636DA3891B1823F48053ACBFB2
:101820006365A38110BD2DE9F0411F468B89DB055F
:1018300005460C46164605D502230022B1F90E10C6
:1018400000F068F8A389B4F90E1023F48053A38143
:1018500032463B462846BDE8F04100F017B810B5C7
:101860000C46B1F90E1000F055F8431CA38915BFC2
:10187000606523F4805343F48053A38118BFA38190
:1018800010BDB1F90E1000F013B8000038B5074CC8
:10189000054608461146002222601A46FFF778FAEC
:1018A000431C02D1236803B12B6038BD28010020FE
:1018B00038B5064C0023054608462360FFF78CFA2E
:1018C000431C02D1236803B12B6038BD28010020DE
:1018D00038B5074C00230546084611462360FFF73C
:1018E0007EFA431C02D1236803B12B6038BD00BFD0
:1018F0002801002038B5064C002305460846236021
:10190000FFF772FA431C02D1236803B12B6038BD84
:101910002801002038B5074C05460846114600222C
:1019200022601A46FFF762FA431C02D1236803B112
:101930002B6038BD280100200148FFF73CBE00BFE6
:10194000200100200148FFF737BE00BF2001002022
:1019500038B5074C054608461146002222601A4653
:10196000FFF706FA431C02D1236803B12B6038BD90
:10197000280100200D0A2D2D2053414D45353420DE
:1019800058706C61696E65642050726F20626F6F71
:1019900074206578616D706C65202D2D0D00000040
:1019A0004275696C742031363A34313A30392061ED
:1019B00074204D617920323820323032300D0A0DDA
:1019C000000000004E564D4354524C202D2D2073E4
:1019D0006574207761697420737461746573207411
:1019E0006F206D616E75616C20616E6420352057CB
:1019F000532E0D004F53434354524C202D2D20584D
:101A00004F53433120283132204D487A29207275B6
:101A10006E6E696E672E0D0047434C4B30202020C0
:101A20002D2D20636F6E6E656374656420746F2066
:101A300044504C4C302028313230204D487A292EE9
:101A40000D00000047434C4B312020202D2D2063FA
:101A50006F6E6E656374656420746F2044504C4CE7
:101A6000312028323030204D487A292E0D000000D8
:101A700047434C4B322020202D2D20636F6E6E6526
:101A80006374656420746F2044504C4C31202832BC
:101A90003030204D487A292C20646976696465725B
:101AA000203230302C206F757470757420656E6133
:101AB000626C6564202850423135292E0D000000EB
:101AC00047434C4B332020202D2D20636F6E6E65D5
:101AD0006374656420746F20584F5343312028206D
:101AE0003132204D487A292E0D00000047434C4BDF
:101AF000342020202D2D20636F6E6E656374656425
:101B000020746F204F5343554C5033324B202833B1
:101B1000322E373638206B487A292E0D000000000F
:101B20004750494F202020202D2D20636F6E66697D
:101B3000677572656420504D555820666F72204756
:101B4000434C4B312C2054433720574F3020616E8B
:101B50006420574F312C2055415254205258206157
:101B60006E642054582E0D005541525420202020E0
:101B70002D2D20696E697469616C697A65642074C1
:101B80006F2031313532303020626175642C20385D
:101B90004E312E0D000000000D0A2D2D2046696EDD
:101BA000697368656420696E697469616C697A61DA
:101BB00074696F6E2C207374617274696E67206132
:101BC00070702E0D0000000043434C202020202088
:101BD0002D2D20756E6D61736B2043434C20746F07
:101BE00020656E61626C6520696E74657266616302
:101BF00065206F6E20415042432E0D0043434C2020
:101C0000202020202D2D20636F6E6E656374204789
:101C1000434C4B3320746F2043434C2E0D00000087
:101C200043434C20202020202D2D20636F6E6669B9
:101C30006775726520696E707574206F66204C55EB
:101C4000545B305D2C20494E5B305D206973204928
:101C50004F2E0D0043434C20202020202D2D2063AB
:101C60006F6E66696775726520616E6420656E616E
:101C7000626C65204C55545B305D2C20696E766536
:101C80007274696E6720696E7075742E0D000000A5
:101C900043434C20202020202D2D20636F6E666949
:101CA0006775726520696E707574206F66204C557B
:101CB000545B305D2C20494E5B305D2069732053AE
:101CC0004552434F4D322C2050616420302E0D0080
:101CD00043434C20202020202D2D20656E61626C16
:101CE000652043434C2E0D004441432020202020FA
:101CF0002D2D20756E6D61736B2044414320746FF0
:101D000020656E61626C6520696E746572666163E0
:101D100065206F6E20415042442E0D004441432007
:101D2000202020202D2D20636F6E6E656374204768
:101D30004C434B3320746F204441432E0D00000070
:101D400044414320202020202D2D20697373756588
:101D5000206120736F6674776172652072657365A8
:101D6000742E0D0044414320202020202D2D20736F
:101D7000656C65637420756E627566666572656410
:101D80002065787465726E616C2072656665726537
:101D90006E63652E0D00000044414320202020206A
:101DA0002D2D2063757272656E7420636F6E747270
:101DB0006F6C20746F20314D427073206D6F6465BD
:101DC0002E0D000044414320202020202D2D2045B1
:101DD0006E61626C652044414330207769746820ED
:101DE0006175746F207265667265736820657665CB
:101DF000727920333075732E0D000000444143206A
:101E0000202020202D2D20456E61626C65204441EC
:101E10004320636F6E74726F6C6C65722E0D0000E0
:101E200044504C4C302020202D2D2073657420729E
:101E300065666572656E636520746F20584F534305
:101E40003120616E6420646976696465206279205E
:101E5000342E0D0044504C4C302020202D2D20736A
:101E60006574206D756C7469706C69657220746F2F
:101E70002034302E0D00000044504C4C30202020E7
:101E80002D2D20656E61626C652044504C4C3020D5
:101E9000616E64207761697420666F72206C6F6375
:101EA0006B2E0D0044504C4C312020202D2D2073E2
:101EB0006574207265666572656E636520746F2057
:101EC000584F53433120616E6420646976696465BC
:101ED00020627920362E0D0044504C4C31202020B9
:101EE0002D2D20736574206D756C7469706C696537
:101EF0007220746F203130302E0D000044504C4C55
:101F0000312020202D2D20656E61626C65204450AB
:101F10004C4C3120616E64207761697420666F7269
:101F2000206C6F636B2E0D00495251202020202021
:101F30002D2D20736574205254435F4952512074F3
:101F40006F207072696F7269747920332E0D0000F2
:101F500049525120202020202D2D20656E61626C79
:101F600065205254435F4952512E0D004952512071
:101F7000202020202D2D2073657420414443315FA3
:101F8000305F49525120746F207072696F726974AA
:101F90007920332E0D0000004952512020202020AE
:101FA0002D2D20656E61626C6520414443315F30A8
:101FB0005F4952512E0D000049525120202020200F
:101FC0002D2D2073657420414443315F315F4952A8
:101FD0005120746F207072696F7269747920332E8A
:101FE0000D00000049525120202020202D2D206579
:101FF0006E61626C6520414443315F315F495251EB
:102000002E0D000049525120202020202D2D20731C
:1020100065742041435F49525120746F207072698A
:102020006F7269747920332E0D00000049525120DF
:10203000202020202D2D20656E61626C652041439B
:102040005F4952512E0D0000504D202020202020AD
:102050002D2D20636F6E66696775726520736C65E0
:102060006570206D6F646520746F205354414E4439
:1020700042592E0D00000000504D2020202020202D
:102080002D2D20736C656570206D6F646520726501
:102090006164792E0D00000050574D202020202033
:1020A0002D2D20756E6D61736B2054433720746F36
:1020B00020656E61626C6520696E7465726661632D
:1020C00065206F6E20415042442E0D0050574D2028
:1020D000202020202D2D20636F6E6E6563742047B5
:1020E0004C434B3220746F205443372E0D000000B8
:1020F00050574D20202020202D2D206973737565A9
:10210000206120736F6674776172652072657365F4
:10211000742E0D0050574D20202020202D2D20738F
:102120006574206D6F646520746F206E6F726D61D1
:102130006C2050574D20696E2031362D6269742015
:10214000636F756E746572206D6F64652E0D00008F
:1021500050574D20202020202D2D2073657420699C
:102160006E697469616C2064757479206379636C3D
:10217000657320666F722043433020616E64204394
:1021800043312E0D0000000050574D20202020200C
:102190002D2D20656E61626C6520544337206D6F74
:1021A00064756C652E0D00004F534333324B202075
:1021B0002D2D2073656C65637420696E7465726E75
:1021C000616C2033326B487A206F7363696C6C6189
:1021D000746F7220617320736F757263652E0D00CA
:1021E00052544320202020202D2D20736F667477B9
:1021F0006172652072657365742E0D005254432020
:10220000202020202D2D20656E61626C6520726576
:1022100061642073796E6368726F6E697A61746944
:102220006F6E20666F7220636F756E7420726567C3
:1022300069737465722E0D005254432020202020B3
:102240002D2D20736574206469766964657220742D
:102250006F20312E0D0000005254432020202020FA
:102260002D2D20656E61626C6520636C6561722046
:102270006F6E206D617463682E0D00005254432010
:10228000202020202D2D20656E61626C65206576F2
:10229000656E7420434D50302C2077696C6C20673C
:1022A000656E6572617465206576656E74206F6E0B
:1022B000206D617463682E0D0000000052544320AD
:1022C000202020202D2D2073657420636F6D706198
:1022D00072652076616C756520746F2033323736F5
:1022E000382E0D0052544320202020202D2D206513
:1022F0006E61626C65205254432E0D00535550435D
:10230000202020202D2D206163746976617465641E
:10231000204C444F20726567756C61746F72206643
:102320006F7220564444434F52452E0D000000006A
:1023300094000020000000000000000000000000E9
:10234000000000000000000000000000000000008D
:10235000000000000000000000000000000000007D
:10236000000000000000000000000000000000006D
:10237000000000000000000000000000000000005D
:10238000000000000000000000000000000000004D
:1023900000000000F8B500BFF8BC08BC9E467047BE
:1023A000CD020000F8B500BFF8BC08BC9E467047DF
:0423B000A502000082
:1023B400F0B48C4608250123204A4FF400014FF065
:1023C40080474FF48046184214BFC2F81811C2F86F
:1023D40014111CEA030F14BFC2F81871C2F8147167
:1023E40000BF00BF00BF5C00A4B2C2F8186100BF08
:1023F40000BF00BF204214BFC2F81811C2F8141164
:102404001CEA040F14BFC2F81871C2F8147100BF9B
:1024140000BF00BF9B009BB2C2F8146100BF00BFA5
:1024240000BF013DCFD1054B8022C3F8182100BF66
:1024340000BF00BFC3F81421F0BC70470080004106
:1024440094000020000000005423000074230000C6
:102454003423000000000000000000000000000021
:102464000000000000000000000000000000000068
:102474000000000000000000000000000000000058
:102484000000000000000000000000000000000048
:102494000000000000000000000000000000000038
:0424A4000000000034
:00000001FF
